:1000000009C00EC00DC016C00BC00AC009C008C090
:1000100012C006C011241FBECFE9CDBF20D081C0C1
:10002000EFCFF894A89514BE88E981BD80E681BD24
:100030007894089518951F920F920FB60F9211247D
:100040008F930FB6F894A89581B5886181BD11BCD6
:100050000FBE8F910F900FBE0F901F901895E1DF8C
:1000600083EA8FBD81E083BF92E099BF93E097BBA5
:1000700016B890E898B985BD8FE184BB85B7877EB7
:1000800085BF81E0811102C0C0E00AC086BF95B77C
:10009000906295BF889595B79F7D95BF8F5FF2CF92
:1000A000C15049F0C6BF85B7806285BF889585B7C6
:1000B0008F7D85BFF5CF16BE85B7877E806185BFF2
:1000C000B0DF85B7806285BF889585B78F7D85BF96
:1000D00085B7877E85BF81E0882351F089BD95B7BC
:1000E000906295BF889595B79F7D95BF8F5FF4CF40
:1000F000C15049F0C9BD85B7806285BF889585B775
:100100008F7D85BFF5CF19BC85B7877E806185BFA0
:1001100088DF85B7806285BF889585B78F7D85BF6D
:06012000ADCFF894FFCF03
:00000001FF
